:060000000A128A11122809
:10000800FE00030EF2000408F3000A08F40083124D
:1000180003137F08F5000A128A1121280A128A118F
:100028001528FA01FB01FC01FD0183120313A0014D
:10003800A10183010A128A117E28831603138C1CDE
:100048003028831203138C1C30288C100130FC07D5
:100058000318FD0A0030FD07831603130C1F7228CE
:10006800831203130C1F72280C13831603131E0824
:10007800F000F1017008F6007108F7007708F10048
:100088007608F00006300310F10CF00CFF3E031D5B
:10009800472803307005F60000307105F700831219
:1000A80003131E08F000F1017008F8007108F90048
:1000B8007908F1007808F0000310F00DF10D031035
:1000C800F00DF10DFC307005F80003307105F900F2
:1000D80078087604A00079087704A10075088312CF
:1000E800FF0074088A0073088400720E8300FE0EF5
:1000F8007E0E09000A128A1106210A128A110A12B2
:100108008A11F6200A128A110A128A11DF200A12AD
:100118008A110A128A11C3200A128A118B170B1727
:10012800831203131208873948389200FC3092056D
:100138001215831603138C14831203138C10643066
:1001480083160313920083160313981CAF284830B4
:10015800831203139900FF30831299009F1C9F1488
:1001680003307D02E83003197C02031CA728FC0138
:10017800FD010618C1280614A7280610A72883160B
:1001880003139816181583120313981718161815C1
:10019800981483160317871707160714871519303D
:1001A8008316031399008316031789018312031317
:1001B800871707130800C030831203139F04C33046
:1001C8009F05831603139F139F121F128312031395
:1001D8001F148B170B17831603130C1783120313A3
:1001E8000C130800831603178901831603130610DE
:1001F80083120313061483160313051483160317B7
:10020800081408006730831603138F000F088F390E
:0E02180060388F008F110F158F140F1408001F
:04400E00F4F4FFFEC9
:00000001FF
