:060000000A128A11122809
:10000800FE00030EF2000408F3000A08F40083124D
:1000180003137F08F5000A128A111D280A128A1193
:100028001528FA01FB01FC01FD0183010A128A115E
:100038009628831603138C1C2C28831203138C1CFC
:100048002C288C100130FC070318FD0A0030FD072E
:10005800831603130C1F6E28831203130C1F6E28BC
:100068000C13831603131E08F000F1017008F60044
:100078007108F7007708F1007608F00006300310E1
:10008800F10CF00CFF3E031D432803307005F60009
:1000980000307105F700831203131E08F000F10108
:1000A8007008F8007108F9007908F1007808F00084
:1000B8000310F00DF10D0310F00DF10DFC3070057B
:1000C800F80003307105F90078087604FA00790819
:1000D8007704FB0075088312FF0074088A00730810
:1000E8008400720E8300FE0E7E0E09008316031331
:1000F80098161815831203139817181618159814BC
:1001080083160317871707160714871519308316E0
:1001180003139900831603178901831203138717A2
:10012800071308000A128A11D1200A128A110A122A
:100138008A11C1200A128A110A128A11AD200A12E4
:100148008A110A128A117A200A128A118B170B1740
:10015800AC28831203131208873948389200FC3000
:1001680092051215831603138C14831203138C1033
:10017800643083160313920008008316031789015D
:10018800831603130610831203130614831603132E
:100198000514831603170814080067308316031321
:1001A8008F000F088F3960388F008F110F158F144B
:0401B8000F14080018
:04400E00F4F4FFFEC9
:00000001FF
